{
  "_format": "hh-sol-artifact-1",
  "contractName": "Chai",
  "sourceName": "contracts/main.sol",
  "abi": [
    {
      "inputs": [],
      "stateMutability": "nonpayable",
      "type": "constructor"
    },
    {
      "inputs": [
        {
          "internalType": "string",
          "name": "name",
          "type": "string"
        },
        {
          "internalType": "string",
          "name": "message",
          "type": "string"
        }
      ],
      "name": "buyCoffee",
      "outputs": [],
      "stateMutability": "payable",
      "type": "function"
    },
    {
      "inputs": [],
      "name": "getMemos",
      "outputs": [
        {
          "components": [
            {
              "internalType": "string",
              "name": "name",
              "type": "string"
            },
            {
              "internalType": "string",
              "name": "message",
              "type": "string"
            },
            {
              "internalType": "uint256",
              "name": "timestamp",
              "type": "uint256"
            },
            {
              "internalType": "address",
              "name": "from",
              "type": "address"
            }
          ],
          "internalType": "struct Chai.Memo[]",
          "name": "",
          "type": "tuple[]"
        }
      ],
      "stateMutability": "view",
      "type": "function"
    }
  ],
  "bytecode": "0x608060405234801561001057600080fd5b5033600160006101000a81548173ffffffffffffffffffffffffffffffffffffffff021916908373ffffffffffffffffffffffffffffffffffffffff160217905550610c8b806100616000396000f3fe6080604052600436106100295760003560e01c8063204206e11461002e578063865c51721461004a575b600080fd5b610048600480360381019061004391906105a9565b610075565b005b34801561005657600080fd5b5061005f61026c565b60405161006c9190610826565b60405180910390f35b600034116100b8576040517f08c379a00000000000000000000000000000000000000000000000000000000081526004016100af906108a5565b60405180910390fd5b6000600160009054906101000a900473ffffffffffffffffffffffffffffffffffffffff1673ffffffffffffffffffffffffffffffffffffffff1634604051610100906108f6565b60006040518083038185875af1925050503d806000811461013d576040519150601f19603f3d011682016040523d82523d6000602084013e610142565b606091505b5050905080610186576040517f08c379a000000000000000000000000000000000000000000000000000000000815260040161017d90610957565b60405180910390fd5b600060405180608001604052808581526020018481526020014281526020013373ffffffffffffffffffffffffffffffffffffffff16815250908060018154018082558091505060019003906000526020600020906004020160009091909190915060008201518160000190816101fd9190610b83565b5060208201518160010190816102139190610b83565b506040820151816002015560608201518160030160006101000a81548173ffffffffffffffffffffffffffffffffffffffff021916908373ffffffffffffffffffffffffffffffffffffffff1602179055505050505050565b60606000805480602002602001604051908101604052809291908181526020016000905b8282101561044657838290600052602060002090600402016040518060800160405290816000820180546102c3906109a6565b80601f01602080910402602001604051908101604052809291908181526020018280546102ef906109a6565b801561033c5780601f106103115761010080835404028352916020019161033c565b820191906000526020600020905b81548152906001019060200180831161031f57829003601f168201915b50505050508152602001600182018054610355906109a6565b80601f0160208091040260200160405190810160405280929190818152602001828054610381906109a6565b80156103ce5780601f106103a3576101008083540402835291602001916103ce565b820191906000526020600020905b8154815290600101906020018083116103b157829003601f168201915b50505050508152602001600282015481526020016003820160009054906101000a900473ffffffffffffffffffffffffffffffffffffffff1673ffffffffffffffffffffffffffffffffffffffff1673ffffffffffffffffffffffffffffffffffffffff168152505081526020019060010190610290565b50505050905090565b6000604051905090565b600080fd5b600080fd5b600080fd5b600080fd5b6000601f19601f8301169050919050565b7f4e487b7100000000000000000000000000000000000000000000000000000000600052604160045260246000fd5b6104b68261046d565b810181811067ffffffffffffffff821117156104d5576104d461047e565b5b80604052505050565b60006104e861044f565b90506104f482826104ad565b919050565b600067ffffffffffffffff8211156105145761051361047e565b5b61051d8261046d565b9050602081019050919050565b82818337600083830152505050565b600061054c610547846104f9565b6104de565b90508281526020810184848401111561056857610567610468565b5b61057384828561052a565b509392505050565b600082601f8301126105905761058f610463565b5b81356105a0848260208601610539565b91505092915050565b600080604083850312156105c0576105bf610459565b5b600083013567ffffffffffffffff8111156105de576105dd61045e565b5b6105ea8582860161057b565b925050602083013567ffffffffffffffff81111561060b5761060a61045e565b5b6106178582860161057b565b9150509250929050565b600081519050919050565b600082825260208201905092915050565b6000819050602082019050919050565b600081519050919050565b600082825260208201905092915050565b60005b8381101561068757808201518184015260208101905061066c565b60008484015250505050565b600061069e8261064d565b6106a88185610658565b93506106b8818560208601610669565b6106c18161046d565b840191505092915050565b6000819050919050565b6106df816106cc565b82525050565b600073ffffffffffffffffffffffffffffffffffffffff82169050919050565b6000610710826106e5565b9050919050565b61072081610705565b82525050565b600060808301600083015184820360008601526107438282610693565b9150506020830151848203602086015261075d8282610693565b915050604083015161077260408601826106d6565b5060608301516107856060860182610717565b508091505092915050565b600061079c8383610726565b905092915050565b6000602082019050919050565b60006107bc82610621565b6107c6818561062c565b9350836020820285016107d88561063d565b8060005b8581101561081457848403895281516107f58582610790565b9450610800836107a4565b925060208a019950506001810190506107dc565b50829750879550505050505092915050565b6000602082019050818103600083015261084081846107b1565b905092915050565b600082825260208201905092915050565b7f41646420616d6f756e74206d6f7265207468616e207a65726f00000000000000600082015250565b600061088f601983610848565b915061089a82610859565b602082019050919050565b600060208201905081810360008301526108be81610882565b9050919050565b600081905092915050565b50565b60006108e06000836108c5565b91506108eb826108d0565b600082019050919050565b6000610901826108d3565b9150819050919050565b7f5472616e73616374696f6e206973206e6f7420636f6d706c6574650000000000600082015250565b6000610941601b83610848565b915061094c8261090b565b602082019050919050565b6000602082019050818103600083015261097081610934565b9050919050565b7f4e487b7100000000000000000000000000000000000000000000000000000000600052602260045260246000fd5b600060028204905060018216806109be57607f821691505b6020821081036109d1576109d0610977565b5b50919050565b60008190508160005260206000209050919050565b60006020601f8301049050919050565b600082821b905092915050565b600060088302610a397fffffffffffffffffffffffffffffffffffffffffffffffffffffffffffffffff826109fc565b610a4386836109fc565b95508019841693508086168417925050509392505050565b6000819050919050565b6000610a80610a7b610a76846106cc565b610a5b565b6106cc565b9050919050565b6000819050919050565b610a9a83610a65565b610aae610aa682610a87565b848454610a09565b825550505050565b600090565b610ac3610ab6565b610ace818484610a91565b505050565b5b81811015610af257610ae7600082610abb565b600181019050610ad4565b5050565b601f821115610b3757610b08816109d7565b610b11846109ec565b81016020851015610b20578190505b610b34610b2c856109ec565b830182610ad3565b50505b505050565b600082821c905092915050565b6000610b5a60001984600802610b3c565b1980831691505092915050565b6000610b738383610b49565b9150826002028217905092915050565b610b8c8261064d565b67ffffffffffffffff811115610ba557610ba461047e565b5b610baf82546109a6565b610bba828285610af6565b600060209050601f831160018114610bed5760008415610bdb578287015190505b610be58582610b67565b865550610c4d565b601f198416610bfb866109d7565b60005b82811015610c2357848901518255600182019150602085019450602081019050610bfe565b86831015610c405784890151610c3c601f891682610b49565b8355505b6001600288020188555050505b50505050505056fea2646970667358221220c49935f8ef84ae13c2cc8106081b702d46ddd474419b6c46ec96e0a2767d015164736f6c63430008130033",
  "linkReferences": {},
  "deployedLinkReferences": {}
}